:0400000032EF31F0BA
:1000080000C015F0F2A428D00501554B562B000E60
:10001800565D02E1C80E555D0EE3556B566B010E39
:1000280000017727000E782379237A23A451010A47
:1000380002E1A54BA62B0001000EA61902E1780EDD
:10004800A51905E1A46BA56BA66B010E8F6F630E56
:0E005800D76EC00ED66EF29415C000F01100E7
:10006600C8C8C9FFC7B002D00000FCD7C9CF00F08E
:02007600120076
:10007800F250026EF29E0500FF6A0150FE6E0050BB
:08008800FD6E02BEF28E1200B3
:100090008998400E0801C511006EBDC0E1FFBEC0C9
:1000A000E2FF00C0E6FFBBC000F0BCC001F0E4DF2F
:1000B000BDC0E1FFBEC0E2FFC6C8E6FFBBC000F0A6
:1000C000BCC001F0D9DFBDC0E1FFBEC0E2FFC7C8C0
:1000D000E6FFBBC000F0BCC001F0CEDF8988120093
:1000E0008998BDC0E1FFBEC0E2FFC2C8E6FFBBC049
:1000F00000F0BCC001F0C0DFBDC0E1FFBEC0E2FF48
:10010000E66ABBC000F0BCC001F0B6DF898812000F
:100110008998BDC0E1FFBEC0E2FF7A0EE66EBBC0AB
:1001200000F0BCC001F0A8DFBDC0E1FFBEC0E2FF2F
:10013000C2C8E6FFBBC000F0BCC001F09DDF8988EB
:020140001200AB
:10014200020E0801C56FC2C8C6F8C3C8C7F89FDF50
:100152008998BDC0E1FFBEC0E2FF7A0EE66EBBC069
:1001620000F0BCC001F087DFBDC0E1FFBEC0E2FF0E
:10017200C4C8E6FFBBC000F0BCC001F07CDF8988C8
:02018200120069
:100184008998800E0801C211006EBDC0E1FFBEC097
:10019400E2FF00C0E6FFBBC000F0BCC001F06ADFB4
:1001A400BDC0E1FFBEC0E2FFC3C8E6FFBBC000F0B4
:0A01B400BCC001F05FDF8988120073
:1001BE000801C56BC2C8C6F8C3C8C7F862DF899804
:1001CE00BDC0E1FFBEC0E2FF3A0EE66EBBC000F05E
:1001DE00BCC001F04ADFBDC0E1FFBEC0E2FFE66A6F
:0E01EE00BBC000F0BCC001F040DF89881200E9
:1001FC008998A00E0801C211006EBDC0E1FFBEC0FF
:10020C00E2FF00C0E6FFBBC000F0BCC001F02EDF77
:10021C00BDC0E1FFBEC0E2FFC3C8E6FFBBC000F03B
:0A022C00BCC001F023DF8988120036
:0E023600ACB202D00000FCD7BBC8ADFF120076
:10024400BBC8C9FFC7B002D00000FCD7C9CF00F0BB
:02025400120096
:100256000B6A0A6A096A00500402F4CF09F0F3CF68
:1002660008F001500502F4CF0BF0F3CF0AF000506E
:100276000502F3500926F4500A22E86A0B220150BF
:100286000402F3500926F4500A22E86A0B2208C039
:1002960000F009C001F00AC002F00BC003F0120022
:1002A6000801BD51BB25BF6FBE51BC21C06F010EF9
:1002B600BF5F000EC05B100EC56FBBC8C6F8BCC8DA
:1002C600C7F8E3DE120E0801C56FBFC8C6F8C0C87E
:1002D600C7F8DBDE1F0E0801C26F300EC36F4FDF9B
:1002E6001F0E0801C26FF9DE00AA01D0F9D712006D
:1002F6008998BDC0E1FFBEC0E2FF7A0EE66EBBC0C4
:1003060000F0BCC001F0B5DEBDC800F0BEC801F00B
:10031600010E0801BD5F000EBE5B0050011013E028
:10032600BDC0E1FFBEC0E2FFBBC8E9FFBCC8EAFF33
:10033600EECFE6FFBBC000F0BCC001F09ADE0801BC
:0A034600BB4BBC2BE1D789881200E5
:10035000AE0E0801C26F190EC36FC46BF2DEAE0E93
:100360000801BB25006E190EBC21016E00C0BBF850
:1003700001C0BCF8060EC56F00C0C6F801C0C7F8C2
:1003800087DE1F0E0801C26F800EC36FFBDE1F0EDB
:100390000801C26F800EC36F31DF05014851050AA5
:1003A00004E04851070A01E006D01C0E0801C26FA4
:1003B0000A0EC36F23DF1F0E0801C26F080EC36F42
:1003C000E1DE05014851050A04E04851070A01E051
:1003D00080D00801C06BC16B1C0EC26F81DE0A0E9B
:1003E000001600520AE10801C04BC12B030EC15D8B
:1003F00002E1E80EC05D01E2EFD708011C0EC26FFA
:100400006FDE00B208D0030E0801C15D02E1E80E04
:10041000C05D01E25DD008011F0EC26F080EC36F00
:10042000EDDE040E0801BB25C26F000EBC21C36FB8
:10043000C6DE00C0BFF80801BD6B100EBD5D48E20E
:100440001C0EC26F4DDE00A23FD00801BFAB3CD0F6
:100450001F0EC26F800EC36F95DE1F0E0801C26FA4
:10046000800EC36FCBDE1C0E0801C26F0A0EC36F75
:10047000C5DE1F0E0801C26F080EC36F83DE0801C0
:10048000C06BC16B1C0EC26F2BDE0A0E0016005231
:100490000AE10801C04BC12B030EC15D02E1E80E69
:1004A000C05D01E2EFD708011F0EC26F080EC36FD7
:1004B000A5DE040E0801BB25C26F000EBC21C36F70
:1004C0007EDE00C0BFF801D003D00801BD2BB5D738
:1004D00007D008011F0EC26F03DE00A601D0F9D7B6
:1004E0001D0E0801C26FFCDD060E0016005203E06F
:1004F0000801BE6B03D00801010EBE6FBEC800F03C
:020500001200E7
:10050200BBC8C2F8BCC8C3F8BDC8C4F819DEBEC8AF
:06051200C2F8FDDD12003D
:100518008998BDC0E1FFBEC0E2FF7A0EE66EBBC09F
:1005280000F0BCC001F0A4DDBDC0E1FFBEC0E2FF29
:10053800ACC8E6FFBBC000F0BCC001F099DDBDC08F
:10054800E1FFBEC0E2FFABC8E6FFBBC000F0BCC025
:0805580001F08EDD898812001C
:10056000020E0801C56FABC8C6F8ACC8C7F890DD6D
:100570008998BDC0E1FFBEC0E2FF7A0EE66EBBC047
:1005800000F0BCC001F078DD0801AF51B01117E0F8
:10059000BDC0E1FFBEC0E2FFADC8E9FFAEC8EAFFE3
:1005A000EECFE6FFBBC000F0BCC001F065DD080186
:1005B000AD4BAE2B010EAF5F000EB05BE5D7898867
:0205C000120027
:1005C200ADC804F0AEC805F0ABC802F0ACC803F089
:1005D200AFC800F0B0C801F0010E0801AF5F000E15
:1005E200B05B005001100FE004C0E9FF05C0EAFF54
:1005F20002C0E1FF03C0E2FFEECFE6FF024A032A98
:10060200044A052AE5D7ABC800F0ACC801F01200D5
:100612000801B86B010EAD5F000EAE5BB1530DE089
:10062200AE51190802E1AD51AD0807E2B82BAD0E8B
:10063200AD5DB66F190EAE59B76FB85305E0AD0E8A
:10064200B26F190EB36F04D0ADC8B2F8AEC8B3F82A
:10065200AC51B31902E1B251AB190DE1ABC8C2F80A
:10066200ACC8C3F8ABDD00C0C4F8AFC8C2F8B0C8AC
:10067200C3F866DD36D0100E0801C56FABC8C6F8E8
:10068200ACC8C7F804DD120E0801C56FB85305E007
:10069200AD0EB46F190EB56F04D0ADC8B4F8AEC8C4
:1006A200B5F8B4C8C6F8B5C8C7F8F1DC140E08012D
:1006B200C56FAFC8C6F8B0C8C7F8E9DC1F0E08019D
:1006C200C26F100EC36F99DD1F0E0801C26F200E9C
:1006D200C36F57DD1F0E0801C26F01DD00AA01D0F2
:1006E200F9D70801B8531AE0AB51AD5D006EAC51B9
:1006F200AE59016EB651005EB751015A004A012A45
:100702000050AF270150B023010EB65DAD6F000E51
:0E071200B759AE6FAB6BAC6BB86B8FD71200E4
:10072000020E0801AB15016E0150000A05E01C0E17
:10073000AF6F000EB06F04D0140EAF6F000EB06F2D
:10074000500EB76FB86B330E006E000E016EACC862
:1007500004F0000E056E7FDDC00E0026040E01229F
:100760002E0E0024E96E000E0120EA6EEECF01F09D
:10077000EECF02F0000E006E0250005C02E101506C
:10078000000802E2080EB86F010EAB15016E0150B1
:10079000000AD8A4B881100EAB15016E0150000AF2
:1007A000D8A4B889020EAB15016E0150000A03E00F
:1007B000700EB76FB883040EAB15016E0150000ABE
:1007C000D8A4B885AF0EC26F190EC36F330E006E7A
:1007D000000E016EACC804F0000E056E3CDDC00ECC
:1007E0000026040E0122040E0024E96E000E0120F2
:1007F000EA6EEECFC4F8A5DC330E006E000E016E7B
:10080000ACC804F0000E056E26DDC00E0024080101
:10081000BB6F040E0120BC6F040EBB27000EBC236F
:10082000BB4BBC2B050EBD6F000EBE6F64DD360EDC
:10083000BB6F050EBC6F060EBD6F000EBE6F5BDD9D
:10084000080EC26F65DC0801C26B62DC450E080150
:10085000C26F5EDC0801C26B5BDC330E006E000E03
:10086000016EACC804F0000E056EF5DCC00E00266B
:10087000040E01222E0E0024D96E000E0120DA6E25
:10088000DE500801AF25B16FDE50B021B26F140EFB
:10089000B127000EB223B2C8C2F83ADCB1C8C2F820
:1008A00037DC330E006E000E016EACC804F0000E93
:1008B000056ED1DCC00E0026040E0122200E00269B
:1008C000000E0122010E0024E96E000E0120EA6EE6
:1008D000EECFC2F81DDC330E006E000E016EACC808
:1008E00004F0000E056EB7DCC00E0026040E0122D7
:1008F000200E00240801B96F000E0120BA6FB9C89C
:10090000E9FFBAC8EAFFEECFC2F802DCB9C8E9FFD6
:10091000BAC8EAFF010EEE24006E000EEE20016E52
:10092000B9C8E1FFBAC8E2FF00C0E6FF01C0E6FFB8
:10093000400E0801C26F88EC00F00801C26B88EC21
:1009400000F0800E0801C26F88EC00F0060E08016E
:10095000C26F88EC00F00801C26B88EC00F008015F
:10096000C26B88EC00F03C0E0801BB6F050EBC6F3B
:10097000040EBD6F000EBE6FBEDC330E006E000EA7
:10098000016EACC804F0000E056E65DCC00E0024DC
:10099000BB6F040E0120BC6F040EBD6F000EBE6F56
:1009A000AADCBD0EBB6F190EBC6F140EBD6F000E1E
:1009B000BE6F79DC160E0801C26F70EC00F000C04B
:1009C000B9F8170E0801C26F70EC00F000C0BDF856
:1009D000C70E0801BB6F190EBC6FB9C8BEF891DD18
:1009E000D10E0801C26F190EC36F330E006E000ED8
:1009F000016EACC804F0000E056E2DDCC00E0026A2
:100A0000040E01220C0E0026000E0122010E00240D
:100A1000E96E000E0120EA6EEECFC4F8A1EC00F002
:100A2000330E006E000E016EACC804F0000E056EB1
:100A300012DCC00E0026040E01220C0E0024E96E0A
:100A4000000E0120EA6EEECFC2F888EC00F0330E03
:100A5000006E000E016EACC804F0000E056E2BECAB
:100A600001F0C00E0026040E01220A0E0026000E20
:100A70000122010E0024E96E000E0120EA6EEECF85
:100A8000C2F888EC00F0330E006E000E016EACC8A8
:100A900004F0000E056E2BEC01F0C00E0026040ED3
:100AA00001220A0E0024E96E000E0120EA6EEECF4C
:100AB000C2F888EC00F0330E006E000E016EACC878
:100AC00004F0000E056E2BEC01F0C00E0026040EA3
:100AD0000122160E0026000E0122030E0024E96EEC
:100AE000000E0120EA6EEECFC2F888EC00F0330E63
:100AF000006E000E016EACC804F0000E056E2BEC0B
:100B000001F0C00E0026040E0122160E0026000E73
:100B10000122020E0024E96E000E0120EA6EEECFE3
:100B2000C2F888EC00F0330E006E000E016EACC807
:100B300004F0000E056E2BEC01F0C00E0026040E32
:100B40000122160E0026000E0122010E0024E96E7D
:100B5000000E0120EA6EEECFC2F888EC00F0330EF2
:100B6000006E000E016EACC804F0000E056E2BEC9A
:100B700001F0C00E0026040E0122160E0024E96EBC
:100B8000000E0120EA6EEECFC2F888EC00F0330EC2
:100B9000006E000E016EACC804F0000E056E2BEC6A
:100BA00001F0C00E0026040E01221A0E0026000ECF
:100BB0000122030E0024E96E000E0120EA6EEECF42
:100BC000C2F888EC00F0330E006E000E016EACC867
:100BD00004F0000E056E2BEC01F0C00E0026040E92
:100BE00001221A0E0026000E0122020E0024E96ED8
:100BF000000E0120EA6EEECFC2F888EC00F0330E52
:100C0000006E000E016EACC804F0000E056E2BECF9
:100C100001F0C00E0026040E01221A0E0026000E5E
:100C20000122010E0024E96E000E0120EA6EEECFD3
:100C3000C2F888EC00F0330E006E000E016EACC8F6
:100C400004F0000E056E2BEC01F0C00E0026040E21
:100C500001221A0E0024E96E000E0120EA6EEECF8A
:100C6000C2F888EC00F0B7C8C2F888EC00F0B8C849
:100C7000C2F888EC00F0330E006E000E016EACC8B6
:100C800004F0000E056E2BEC01F0C00E0026040EE1
:100C90000122120E0026000E0122010E0024E96E30
:100CA000000E0120EA6EEECFC2F888EC00F0330EA1
:100CB000006E000E016EACC804F0000E056E2BEC49
:100CC00001F0C00E0026040E0122120E0024E96E6F
:100CD000000E0120EA6EEECFC2F888EC00F00801A9
:100CE000C26B88EC00F00801C26B88EC00F00801D0
:100CF000C26B88EC00F00801C26B88EC00F0020EB9
:100D00000801AB15016E0150000A51E0020EC26FDE
:100D100088EC00F0040E0801C26F88EC00F0330E7E
:100D2000006E000E016EACC804F0000E056E2BECD8
:100D300001F0C00E0026040E0122140E0026000E43
:100D40000122010E0024E96E000E0120EA6EEECFB2
:100D5000C2F888EC00F0330E006E000E016EACC8D5
:100D600004F0000E056E2BEC01F0C00E0026040E00
:100D70000122140E0024E96E000E0120EA6EEECF6F
:100D8000C2F888EC00F0010E0801C26F88EC00F098
:100D9000010E0801C26F88EC00F0040E0801C26F5A
:100DA00088EC00F0020E0801C26F88EC00F0330EF0
:100DB000006E000E016EACC804F0000E056E2BEC48
:100DC00001F0C00E0026040E01222E0E0024E96E52
:100DD000000E0120EA6EEECF01F0EECF02F0000E21
:100DE000006E0250005C02E10150000861E208015F
:100DF000B56BB66B330E006E000E016EACC804F01E
:100E0000000E056E2BEC01F0C00E0026040E012230
:100E10002E0E0024D96E000E0120DA6EDECF01F016
:100E2000DECF02F00250B65D02E10150B55D40E256
:100E3000330E006E000E016EACC804F0000E056E9D
:100E40002BEC01F0C00E0024046E040E0120056E90
:100E5000260E0424E96E000E0520EA6EB551EE243C
:100E6000026EB651EE20036E000E006E040E016E8F
:100E7000010E005E000E015A0050021601500316CA
:100E8000310E0424E96E000E0520EA6EEECF00F06C
:100E9000EECF01F002500024E96E03500120EA6E0B
:100EA000EECFC2F888EC00F00801B54BB62BA2D704
:100EB0000801D10EAF25B96F190EB021BA6F330EEC
:100EC000006E000E016EACC804F0000E056E2BEC37
:100ED00001F0C00E0026040E01222E0E0024026E28
:100EE000000E0120036E02C0D9FF03C0DAFFDE50FE
:100EF000B925006EDE50BA21016E00C0ADF801C008
:100F0000AEF802C0E9FF03C0EAFF010EEE14B36FB2
:100F1000EECFB4F8000EB41700C0C2F801C0C3F899
:100F2000C46BA1EC00F00801B351AD25BB6FB45107
:100F3000AE21BC6F3CC5BDF83DC5BEF881EC02F0EA
:100F40000801B351AD25BB6FB451AE21BC6F020E89
:100F5000BB27000EBC233EC5BDF83FC5BEF881ECE3
:100F600002F00801B351AD25BB6FB451AE21BC6F87
:100F7000040EBB27000EBC23330E006E000E016E64
:100F8000ACC804F0000E056E2BEC01F0C00E00267C
:100F9000040E012200C0E9FF01C0EAFFEECFBDF858
:100FA000010E0024E96E000E0120EA6EEECFBEF8BD
:100FB00081EC02F00801B351AD25BB6FB451AE21F5
:100FC000BC6F060EBB27000EBC23330E006E000E56
:100FD000016EACC804F0000E056E2BEC01F0C00EE3
:100FE0000026040E0122020E0024E96E000E0120EC
:100FF000EA6EEECFBDF8030E0024E96E000E01206C
:10100000EA6EEECFBEF881EC02F0080E0801AD25C5
:10101000BB6F000EAE21BC6FB351BB27B451BC23D4
:10102000BD6B060EBE6F81EC02F00A0E0801AD2505
:10103000BB6F000EAE21BC6FB351BB27B451BC23B4
:10104000330E006E000E016EACC804F0000E056E8B
:101050002BEC01F0C00E0026040E01222E0E0024FF
:10106000E96E000E0120EA6EEECF05F0EECF06F03D
:101070000550AF25036E0650B021046E04C000F089
:10108000016A00C0BDF80550AF25BE6F81EC02F0CB
:10109000D10E0801BB6F190EBC6F330E006E000E2F
:1010A000016EACC804F0000E056E2BEC01F0C00E12
:1010B0000026040E01222E0E0024D96E000E0120FF
:1010C000DA6EDE50AF25BD6FDE50B021BE6F0C0E64
:1010D000BD27000EBE23B351BD27B451BE2353EC30
:1010E00001F0160E0801C26F70EC00F000C0B9F8F4
:1010F000170E0801C26F70EC00F000C0BDF8E10EE1
:101100000801BB6F190EBC6FB9C8BEF881EC02F0C4
:10111000220E0801AF25BB6F000EB021BC6F330E4D
:10112000006E000E016EACC804F0000E056E2BECD4
:1011300001F0C00E0026040E01222E0E0024D96EEE
:10114000000E0120DA6EDE50BB27DE50BC23A8EC77
:0411500001F0120098
:101154008998BDC0E1FFBEC0E2FF3A0EE66EBBC097
:1011640000F0BCC001F03CEC00F0BDC0E1FFBEC02B
:10117400E2FFE66ABBC000F0BCC001F03CEC00F04A
:041184008988120044
:10118800086A096A100E0C6E0134083609360450D4
:10119800085E0550D8A0053C095ED8B007D00450B9
:1011A80008260550D8B0053C0926D89000360136E7
:0611B8000C2EEAD7120024
:1011BE000801A051FF0A02E1FF0E9F1907E0C56B5F
:1011CE009FC8C6F8A0C8C7F848EC00F08998BDC003
:1011DE00E1FFBEC0E2FF3A0EE66EBBC000F0BCC03F
:1011EE0001F03CEC00F0A1C800F0A2C801F0010E25
:1011FE000801A15F000EA25B0050011015E0BDC0FA
:10120E00E1FFBEC0E2FFE66ABBC000F0BCC001F069
:10121E003CEC00F09DC8E1FF9EC8E2FF00C0E6FF77
:0C122E0008019D4B9E2BDFD78988120021
:10123A009DC8ABF89EC8ACF83C0E0801AD6F050E10
:10124A00AE6F040EAF6F000EB06FE1EC02F09F6B51
:10125A009F51030821E39F519D25026E000E9E2196
:10126A00036E02C0E9FF03C0EAFFEECF01F0770E7A
:10127A00E96E050EEA6E9F51E926D8B0EA2AFF0EFA
:10128A00EE18006E0150001202C0E1FF03C0E2FF37
:0A129A0000C0E6FF9F2BDCD7120016
:1012A400A1C801F0A2C802F0010E0801A15F000E5E
:1012B400A25B000E021802E1000E01181FE09DC897
:1012C400E9FF9EC8EAFF9FC8D9FFA0C8DAFFEE5025
:1012D400DE180FE09DC8E9FF9EC8EAFF9FC8D9FF4A
:1012E400A0C8DAFFDE50EE5C006E016A000E015AFF
:1012F40007D09D4B9E2B9F4BA02BD2D7006A016A2F
:021304001200D5
:101306008998BDC0E1FFBEC0E2FF7A0EE66EBBC0A3
:1013160000F0BCC001F03CEC00F0A0C800F0A1C891
:1013260001F0010E0801A05F000EA15B0050011044
:101336001CE0BDC0E1FFBEC0E2FF9DC8F6FF9EC82F
:10134600F7FF9FC8F8FF0900F5CF00F000C0E6FFE1
:10135600BBC000F0BCC001F03CEC00F0010E08017F
:0E1366009D27000E9E239F23D8D78988120052
:1013740008019E51020AD8B497D0330E006E000EB5
:10138400016E9FC804F0000E056E2BEC01F0C00E38
:101394000024066E040E0120076E2C0E0624E96E4E
:1013A400000E0720EA6E010EEE24026E000EEE20FF
:1013B400036E000E006E040E016E010E005E000E40
:1013C400015A00500214046E03500114056E04C047
:1013D400A0F805C0A1F8280E0624D96E000E072037
:1013E400DA6EDECF01F0DECF02F00550021802E122
:1013F4000150041819E1330E006E000E016E9FC8EF
:1014040004F0000E056E2BEC01F0C00E0026040E55
:101414000122300E0024E16E000E0120E26E010E66
:10142400E66E020E006EACD1330E006E000E016E3D
:101434009FC804F0000E056E2BEC01F0C00E0024D2
:10144400026E040E0120036E310E0224006E000EA3
:101454000320016E2C0E0224D96E000E0320DA6ED6
:1014640000C0E9FF01C0EAFFDE50EE24E16EDE5069
:10147400EE20E26E9DC8E6FF330E006E000E016E94
:101484009FC804F0000E056E2BEC01F0C00E002680
:10149400040E01222C0E0024E16E000E0120E26EE7
:1014A400A0C8E6FFA1C8E6FF9E510008D8B066D1E7
:1014B400330E006E000E016E9FC804F0000E056E20
:1014C4002BEC01F0C00E0026040E01222C0E002489
:1014D400E96E000E0120EA6EEECF03F0EECF04F0C9
:1014E4002A0E0024D96E000E0120DA6EDECF01F040
:1014F400DECF02F00250045C02E10150035C25E2FD
:10150400330E006E000E016E9FC804F0000E056ECF
:101514002BEC01F0C00E0026040E01222C0E002438
:10152400E96E000E0120EA6E000EEE24A06F040E98
:10153400EE20A16F2A0E0024D96E000E0120DA6E6F
:10154400DE50A05FDE50A15B20D0330E006E000E93
:10155400016E9FC804F0000E056E2BEC01F0C00E66
:101564000026040E01222C0E0024E96E000E012038
:10157400EA6E2A0E0024D96E000E0120DA6EDE50C7
:10158400EE5CA06FDE50EE58A16F330E006E000EBD
:10159400016E9FC804F0000E056E2BEC01F0C00E26
:1015A4000026040E0122100E0024D96E000E012024
:1015B400DA6EDECF01F0DECF02F0A151025C02E16F
:1015C400A051015C18E2330E006E000E016E9FC83C
:1015D40004F0000E056E2BEC01F0C00E0026040E84
:1015E4000122100E0024E96E000E0120EA6EEECFF7
:1015F400A0F8EECFA1F8330E006E000E016E9FC866
:1016040004F0000E056E2BEC01F0C00E0026040E53
:1016140001222E0E0024E16E000E0120E26EA0C80D
:10162400E6FFA1C8E6FF330E006E000E016E9FC8F0
:1016340004F0000E056E2BEC01F0C00E0026040E23
:101644000122260E0024E16E000E0120E26E2A0E15
:101654000024E96E000E0120EA6EEECFE6FFEECF25
:10166400E6FF330E006E000E016E9FC804F0000EFC
:10167400056E2BEC01F0C00E0026040E01222A0E8A
:101684000024046E000E0120056E04C0E9FF05C0AD
:10169400EAFFA051EE24026EA151EE20036E000E6B
:1016A400006E040E016E010E005E000E015A02501F
:1016B40000160350011604C0E1FF05C0E2FF00C09C
:1016C400E6FF01C0E6FF330E006E000E016E9FC8F8
:1016D40004F0000E056E2BEC01F0C00E0026040E83
:1016E40001222A0E0024E96E000E0120EA6EEECFDC
:1016F40003F0EECF04F02C0E0024D96E000E01206E
:10170400DA6EDECF01F0DECF02F00450021802E1FF
:101714000150031816E0330E006E000E016E9FC8D0
:1017240004F0000E056E2BEC01F0C00E0026040E32
:101734000122300E0024E16E000E0120E26E010E43
:10174400E66E330E006E000E016E9FC804F0000EAC
:10175400056E2BEC01F0C00E0026040E01221F0EB4
:101764000024E16E000E0120E26E030EE66E100E00
:10177400AB6F9FC8ACF890EC03F002D0030E006E80
:02178400120051
:10178600086A080E0C6E003408360450085ED8B09D
:0E17960002D00826D89000360C2EF5D712008F
:1017A40011C8E1FF12C8E2FF9DC8E6FF0FC800F0B0
:0A17B40010C801F03CEC00F0120038
:1017BE00AF0E0801AB6F190EAC6F9DC8ADF89EC889
:1017CE00AEF8060EAF6F000EB06FB0EC02F0360E34
:1017DE00BB6F050EBC6F060EBD6F000EBE6F7BECB1
:1017EE0001F0000EAB6F080EAC6F8CEC02F01C0E0D
:1017FE000801A525A86F000EA621A96F000EAB6FDC
:10180E00450EAC6F8CEC02F0A8C8ABF8A9C8ACF8CA
:10181E008CEC02F005C8ABF806C8ACF88CEC02F004
:10182E000801054B062BAB6BAC6B8CEC02F0110E6A
:10183E000801AB6F800EAC6F8CEC02F00801AB6B45
:10184E00AC6B8CEC02F03C0E0801BB6F050EBC6F4E
:10185E00040EBD6F000EBE6F7BEC01F09FC8BBF88F
:10186E00A0C8BCF8040EBD6F000EBE6F7BEC01F07D
:10187E00080EA525A86F000EA621A96FA1C8ABF86A
:10188E00A2C8ACF88CEC02F0A3C8ABF8A4C8ACF8B4
:10189E008CEC02F0A8C8ABF8A9C8ACF88CEC02F03E
:1018AE000801AB6BAC6B8CEC02F0BD0E0801BB6F8C
:1018BE00190EBC6F140EBD6F000EBE6F53EC01F00F
:1018CE00160E0801C26F70EC00F000C0AAF8170ED9
:1018DE000801C26F70EC00F000C0BDF8C70E080121
:1018EE00BB6F190EBC6FAAC8BEF881EC02F0010ED8
:1018FE000801A815A76FD90EA525C26F190EA6212E
:10190E00C36FC46BA1EC00F0C90E0801AB6F190ECA
:10191E00AC6FD10EAD6F190EAE6FD90EA525AF6F90
:10192E00190EA621B06FA751AF27000EB023B16BD1
:10193E0009EC03F0D90EA525BB6F190EA621BC6FBD
:10194E00A751BB27000EBC23080EBB27000EBC23DD
:10195E00BD6B110EBE6F81EC02F0A9C8C2F888EC07
:10196E0000F0A8C8C2F888EC00F0D10E0801BB6FD9
:10197E00190EBC6F0C0EA825BD6F000EA921BE6FEF
:10198E00A751BD27000EBE2353EC01F0160E080121
:10199E00C26F70EC00F000C0AAF8170E0801C26FFB
:1019AE0070EC00F000C0BDF8D70E0801BB6F190E29
:1019BE00BC6FAAC8BEF881EC02F02A0E0801A5255C
:1019CE00BB6F000EA621BC6FA8EC01F0000E016EDD
:0219DE001200F5
:1019E00008019B6B9C6B94C800F095C801F096C8E9
:1019F00002F0010E9427000E9523962300C0F6FFF7
:101A000001C0F7FF02C0F8FF0900F5CF99F8000EFA
:101A10009A6F99519A1113E099C89DF89E6B230E05
:101A20009725E96E000E9821EA6EEECF9FF8A2DCB2
:101A30000050020A01E103D09B4B9C2BD4D79BC8DA
:081A400000F09CC801F0120047
:101A48000801986B050E985D0AE298519625E16E9B
:101A5800000E9721E26E200EE66E982BF3D7985170
:101A68009625E16E000E9721E26EE66A9807985176
:101A78009625996F000E97219A6F0A0E046E000E34
:101A8800056E94C800F095C801F0C4EC08F008C0D1
:101A980000F009C001F0300E002699C8E1FF9AC88D
:101AA800E2FF00C0E6FF0A0E046E000E056E94C841
:101AB80000F095C801F0C4EC08F000C094F801C02B
:101AC80095F8000E011802E1000E001801E102D09D
:061AD8009807CDD71200B3
:101ADE00060E0C6E2B0E0D6E0D2EFED70C2EFCD799
:021AEE001200E4
:101AF000250E08019425E16E000E9521E26E050E7B
:101B0000E66E1E0E9425E16E000E9521E26E030E28
:101B1000E66E280E9425E16E000E9521E26EE66ACF
:101B2000E66A2A0E9425E16E000E9521E26EE66AC1
:101B3000E66A2C0E9425E16E000E9521E26EE66AAF
:101B4000E66A110EAB6F230E9425E96E000E952107
:0C1B5000EA6EEECFACF890EC03F012004F
:101B5C00280E08019425E96E000E9521EA6EEECF51
:101B6C0003F0EECF04F02C0E9425D96E000E9521C7
:101B7C00DA6EDECF01F0DECF02F00450021802E183
:101B8C000150031803E1010E006E01D0006A12002F
:101B9C0094C89DF808019E6B230E9525E96E000EE6
:101BAC009621EA6EEECF9FF8BAEC09F0020E005EB9
:021BBC00120015
:101BBE0098C801F099C802F0010E0801985F000E56
:101BCE00995B000E021802E1000E01181FE094C886
:101BDE00E9FF95C8EAFF96C8D9FF97C8DAFFEE501D
:101BEE00DE180FE094C8E9FF95C8EAFF96C8D9FF42
:101BFE0097C8DAFFDE50EE5C006E016A000E015AE5
:101C0E0007D0944B952B964B972BD2D7006A016A2F
:021C1E001200B2
:101C20000801976B94C8E9FF95C8EAFFEECF96F8D4
:101C30009651000A0EE096C89DF8B4DD0801972B76
:101C400097519425E96E000E9521EA6EEECF96F835
:041C5000EFD71200B8
:101C540008019A6B9B6B94C802F095C803F002507C
:101C64009625E96E03509721EA6EEE50000A49E08A
:101C740002509625E96E03509721EA6E98C8D9FF61
:101C840099C8DAFFEE50DE1832E102C004F003C056
:101C940005F00250045C006E03500558016E0050BC
:101CA4009825E96E01509921EA6EEE50000A05E18B
:101CB400010E9A6F000E9B6F1AD004509625E96EA0
:101CC40005509721EA6E0250045C006E03500558DB
:101CD400016E00509825D96E01509921DA6EEE50AC
:101CE400DE1801E101D003D0044A052AD2D7000E40
:101CF4009B1902E1010E9A1901E103D0024A032A59
:0C1D0400AED704C000F005C001F01200D2
:101D100094C8E9FF95C8EAFFEE5211E094C8E9FFC4
:101D200095C8EAFF96C8D9FF97C8DAFFEE50DE18CB
:101D300006E10801944B952B964B972BE9D794C855
:101D4000E9FF95C8EAFF96C8D9FF97C8DAFFDE50C9
:0C1D5000EE5C006E016A000E015A1200E9
:101D5C000801976B030E975D0AE297519525E16E8A
:101D6C00000E9621E26E200EE66E972BF3D797515C
:101D7C009525E16E000E9621E26EE66A9707975163
:101D8C009525986F000E9621996F0A0E046E94C8D3
:101D9C0000F0F3DC08C000F0300E002698C8E1FF1C
:101DAC0099C8E2FF00C0E6FF0A0E046E94C800F06A
:101DBC00E4DC00C094F80050000A01E102D097075F
:041DCC00DED712004C
:101DD000F90E0801976F000E986F020EC56FD90EAD
:101DE000C66F190EC76F48EC00F0300E08019D6FEA
:101DF000990E9E6F000E9F6F0C0EA06F000EA16FCC
:101E000083EC09F09451030A0DE195530BE06D0E3C
:101E1000BB6F050EBC6F040EBD6F000EBE6F7BEC7A
:101E200001F00AD0966B040E965D06E2C26B88EC58
:101E300000F00801962BF7D7966B0C0E965D06E224
:101E4000C26B88EC00F00801962BF7D7360EBB6FFB
:101E5000050EBC6F060EBD6F000EBE6F7BEC01F071
:101E6000966BCA0E965D06E2C26B88EC00F0080124
:101E7000962BF7D73C0E9D6F990E9E6F000E9F6FAD
:101E8000060EA06F000EA16F83EC09F094C8C2F893
:101E900088EC00F008019451030A1AE1955318E107
:101EA000360EC26F88EC00F0040E0801C26F88EC99
:101EB00000F0FC0E0801BB6F070EBC6F040EBD6F77
:101EC000000EBE6F7BEC01F0060E9727000E9823E4
:101ED000420E9D6F990E9E6F000E9F6F050EA06FB4
:101EE000000EA16F83EC09F09451030A23E195538E
:101EF00021E1320EC26F88EC00F0040E0801C26FBF
:101F000088EC00F00801966B040E965D0FE26D0EF2
:101F1000E96E050EEA6E9651E926D8B0EA2AEECFB0
:101F2000C2F888EC00F00801962BEED7060E972732
:101F3000000E9823FF0EC26F88EC00F07B0E0801A4
:101F40009D6F000E9E6F7B0E9F6F000EA06F440E64
:101F5000A16F000EA26F430EA36F000EA46F97C86F
:0A1F6000A5F898C8A6F82BDC1200C3
:101F6A00770E0801AB6F050EAC6F94C8ADF895C833
:101F7A00AEF8040EAF6F000EB06FE1EC02F07B0E0C
:101F8A00AB6F050EAC6F96C8ADF897C8AEF8040EE5
:101F9A00AF6F000EB06FE1EC02F07F0EAB6F050E73
:101FAA00AC6F98C8ADF899C8AEF8040EAF6F000EC2
:101FBA00B06FE1EC02F0690E9D6F050E9E6F1DEC8D
:041FCA0009F0120008
:101FCE00080194517A0804E3610E945DD8B0949B95
:061FDE0094C800F012009F
:101FE40094C802F095C803F097C800F098C801F0AF
:101FF400010E0801975F000E985B0050011009E084
:1020040002C0E1FF03C0E2FF96C8E6FF024A032ACA
:0C201400EBD794C800F095C801F0120052
:102020000801966B3C0E0501516F000E526F536F05
:10203000546FAAEC08F000C094F80050020AD8A42B
:102040002FD10801956B0F0E955D05E2AAEC08F003
:102050000801952BF8D76D0E9D6F050E9E6FFF0E34
:102060009F6FFF0EA06F040EA16F000EA26FDFEC3A
:1020700008F0956B080E955D05E2AAEC08F00801E2
:10208000952BF8D7956B060E955D13E2AAEC08F038
:1020900000C094F8360ED96E050EDA6E080195511F
:1020A000D926D8B0DA2A0050DE1801E025D1952BC8
:1020B000EAD7956BCE0E955D05E2AAEC08F0080113
:1020C000952BF8D7976BAAEC08F000C094F8C9D00C
:1020D000AAEC08F000C094F80050010A05E1AAEC4F
:1020E00008F000C096F801D007D1D6D0AAEC08F0CD
:1020F00000C094F80050040A10E1710E08019D6FB1
:10210000050E9E6FFF0E9F6FFF0EA06F040EA16F56
:10211000000EA26FDFEC08F001D0EED0BDD0AAEC2B
:1021200008F000C094F8040E005C10E34D0E0801A6
:102130009D6F050E9E6FFF0E9F6FFF0EA06F040E2A
:10214000A16F000EA26FDFEC08F001D0D5D008011E
:10215000040E945F080194C800F09407005203E055
:10216000AAEC08F0F7D798D0AAEC08F000C094F8D1
:10217000040E005C10E3490E08019D6F050E9E6F72
:10218000FF0E9F6FFF0EA06F040EA16F000EA26FD7
:10219000DFEC08F001D0B0D00801040E945F080114
:1021A00094C800F09407005203E0AAEC08F0F7D7B7
:1021B00073D0AAEC08F000C094F80050040A10E1B3
:1021C000980E08019D6F080E9E6FFF0E9F6FFF0E09
:1021D000A06F040EA16F000EA26FDFEC08F001D01B
:1021E0008BD05AD00801010E976F56D0AAEC08F098
:1021F00000C094F80050040A24E1510E08019D6FBC
:10220000050E9E6FFF0E9F6FFF0EA06F040EA16F55
:10221000000EA26FDFEC08F005015451000808E140
:102220005351000805E15251070802E151510808D5
:1022300007E2080E515F070E525B000E535B545BC2
:1022400001D05AD029D0AAEC08F000C094F894C864
:1022500000F008019407005203E0AAEC08F0F7D759
:102260001BD008019451350AD8B432D79451010AD1
:10227000D8B43CD79451030AD8B451D79451060A24
:10228000D8B472D79451360A94E09451FF0AAAE068
:102290009451330AABE0D7D708019753D8B413D77A
:1022A00008019651020A0FE1FC0EAB6F070EAC6FEE
:1022B000980EAD6F080EAE6F040EAF6F000EB06FCC
:1022C000E1EC02F016D0FC0E9D6F070E9E6F980E8B
:1022D0009F6F080EA06F040EA16F000EA26F52EC4C
:1022E00009F0000E011802E1000E001802E00801DA
:0C22F000966B96C800F001D0006A120046
:1022FC00B50E0801AB6F190EAC6FBB0EAD6F190E9E
:10230C00AE6FAF0EAF6F190EB06FB16B09EC03F07F
:10231C00B50EAB6F190EAC6F360EAD6F050EAE6F02
:0E232C00060EAF6F000EB06FB0EC02F01200A4
:10233A008998400E08018A11006EBDC0E1FFBEC037
:10234A00E2FF00C0E6FFBBC000F0BCC001F03CECFD
:10235A0000F0BDC0E1FFBEC0E2FF8BC8E6FFBBC014
:0E236A0000F0BCC001F03CEC00F089881200CD
:10237800AAEC08F0AAEC08F0AAEC08F000C08BF868
:10238800AAEC08F000C08AF8AAEC08F000C08DF8A2
:10239800AAEC08F000C08CF8AAEC08F000C08FF88E
:1023A800AAEC08F000C08EF8AAEC08F0AAEC08F035
:1023B800AAEC08F0AAEC08F08CC800F08DC801F06F
:1023C800010E08018C5F000E8D5B005001100EE0BD
:1023D800AAEC08F0005201E0FBD7AAEC08F0AAEC3E
:1023E80008F0AAEC08F0AAEC08F0E6D78EC800F0CE
:1023F8008FC801F0010E08018E5F000E8F5B005040
:10240800011048E0AAEC08F0AAEC08F0AAEC08F0E1
:1024180000C093F8AAEC08F000C092F8AAEC08F003
:10242800AAEC08F0AAEC08F0AAEC08F0AAEC08F06C
:10243800AAEC08F0AAEC08F000C091F8AAEC08F0A1
:1024480000C090F8000E0801931902E1010E9219DC
:1024580011E1AAEC08F000C044F5AAEC08F000C0AD
:1024680045F5AAEC08F000C046F5AAEC08F000C053
:1024780047F510D090C800F091C801F0010E08018E
:10248800905F000E915B0050011003E0AAEC08F089
:06249800F1D7ACD71200E1
:10249E000801C26B70EC00F000C08FF8010E08014D
:1024AE00C26F70EC00F000C090F80801C56B8AC8CE
:1024BE00C6F88BC8C7F848EC00F08998BDC0E1FF9C
:1024CE00BEC0E2FF3A0EE66EBBC000F0BCC001F02B
:1024DE003CEC00F008018E5318E0BDC0E1FFBEC019
:1024EE00E2FFE66ABBC000F0BCC001F03CEC00F0BD
:1024FE008CC8D9FF8DC8DAFF0050DE1801E005D078
:10250E0008018C4B8D2B8E07E5D708018988C56B8A
:10251E008FC8C6F890C8C7F848EC00F08EC800F017
:02252E00120099
:1025300008018A6BC80E8A5D06E26FEC0DF06FEC45
:082540000DF08A2BF7D7120001
:1025480008018B51190802E18A51AD0808E2AD0E65
:102558008A5F190E8B5B010E8A5F000E8B5BC56B61
:0E2568008AC8C6F88BC8C7F848EC00F012000D
:102576008AC8E9FF8BC8EAFFEECF94F8DD0E0801A2
:10258600956F070E966FAEEC0EF02E0E0701E06FFC
:10259600010E08018A25E96E000E8B21EA6EEECF48
:1025A60094F8E10E956F070E966FAEEC0EF02E0EB8
:1025B6000701E46F020E08018A25E96E000E8B21E1
:1025C600EA6EEECF94F8E50E956F070E966FAEECB9
:1025D6000EF02E0E0701E86F030E08018A25E96E3C
:1025E600000E8B21EA6EEECF94F8E90E956F070E7A
:1025F600966FAEEC0EF03A0E0701EC6F0A0E08016C
:102606008A25E96E000E8B21EA6EEECF94F8EECFA6
:1026160095F8ED0E966F070E976F24EC0DF05B0E96
:102626000701F26F0C0E08018A25E96E000E8B2158
:10263600EA6EEECF94F8EECF95F8F30E966F070E8E
:10264600976F24EC0DF05D0E0701F86FF96B0E0E17
:1026560008018A25D96E000E8B21DA6E1C0EDE2447
:102666008C6F000EDE208D6FDD0EBB6F070EBC6F0C
:102676001C0EBD6F000EBE6F7BEC01F008010E0E46
:102686008A25046E000E8B21056E04C0E9FF05C085
:10269600EAFFEECF02F0EECF03F0010E025C006E11
:1026A600000E0358016E04C0E1FF05C0E2FF00C042
:1026B600E6FF01C0E6FF025003100AE0AAEC08F0AC
:1026C60000C094F881DC00C0C2F888EC00F0D6D7D0
:0A26D6008CC800F08DC801F012005E
:1026E000330E006E000E016E8AC804F0000E056EF7
:1026F0002BEC01F0C00E0026040E0122220E002455
:10270000E16E000E0120E26E010EE66E330E006EE9
:10271000000E016E8AC804F0000E056E2BEC01F06D
:10272000C00E0026040E0122230E0024E16E000ECE
:102730000120E26E8AC8E6FF330E006E000E016EC5
:102740008AC804F0000E056E2BEC01F0C00E0026C6
:10275000040E0122260E0024E16E000E0120E26E1E
:10276000E66AE66A330E006E000E016E8AC804F057
:10277000000E056E2BEC01F0C00E0026040E0122A7
:10278000280E0024E16E000E0120E26EE66AE66A81
:10279000330E006E000E016E8AC804F0000E056E46
:1027A0002BEC01F0C00E0026040E01222A0E00249C
:1027B000E16E000E0120E26EE66AE66A330E006EFC
:1027C000000E016E8AC804F0000E056E2BEC01F0BD
:1027D000C00E0026040E01222C0E0024E16E000E15
:1027E0000120E26EE66AE66A330E006E000E016EAC
:1027F0008AC804F0000E056E2BEC01F0C00E002616
:10280000040E01222E0E0024E16E000E0120E26E65
:10281000E66AE66A330E006E000E016E8AC804F0A6
:10282000000E056E2BEC01F0C00E0026040E0122F6
:10283000200E0024E16E000E0120E26E010EE66E15
:10284000010EE66E330E006E000E016E8AC804F0B3
:10285000000E056E2BEC01F0C00E0026040E0122C6
:102860000A0E0024E16E000E0120E26EE66AE66ABE
:10287000330E006E000E016E8AC804F0000E056E65
:102880002BEC01F0C00E0026040E01220C0E0024D9
:10289000E16E000E0120E26EE66AE66A330E006E1B
:1028A000000E016E8AC804F0000E056E2BEC01F0DC
:1028B000C00E0026040E01221F0E0024E16E000E41
:1028C0000120E26EE66A330E006E000E016E8AC8C9
:1028D00004F0000E056E2BEC01F0C00E0026040E75
:1028E00001221E0E0024E16E000E0120E26EE66A57
:1028F000330E006E000E016E8AC804F0000E056EE5
:102900002BEC01F0C00E0026040E0122250E00243F
:10291000E16E000E0120E26EE66A330E006E000EDC
:10292000016E8AC804F0000E056E2BEC01F0C00E9B
:102930000026040E01221A0E0024E16E000E012072
:10294000E26EE66AE66AE66AE66A330E006E000E3A
:10295000016E8AC804F0000E056E2BEC01F0C00E6B
:102960000026040E0122160E0024E16E000E012046
:10297000E26EE66AE66AE66AE66A330E006E000E0A
:10298000016E8AC804F0000E056E2BEC01F0C00E3B
:102990000026040E0122140E0024E16E000E012018
:1029A000E26E2C0EE66E010EE66E330E006E000E29
:1029B000016E8AC804F0000E056E2BEC01F0C00E0B
:1029C0000026040E0122120E0024E16E000E0120EA
:1029D000E26E2C0EE66E010EE66E330E006E000EF9
:1029E000016E8AC804F0000E056E2BEC01F0C00EDB
:1029F0000026040E0122240E0024E16E000E0120A8
:062A0000E26EE66A12001E
:102A06000801906B916B0C0E8A25E96E000E8B21E6
:102A1600EA6EEECF01F0EECF02F0000E021802E1F0
:102A2600500E011802E018EF1BF08E6B8F6B800EB4
:102A36008F19006E800E005C02E10A0E8E5D12E2B6
:102A4600830E8E25926F050E8F21936FAAEC08F0E8
:102A560092C8E1FF93C8E2FF00C0E6FF08018E4B73
:102A66008F2BE5D7830E946F050E956F850E966FA7
:102A7600000E976F060E986F000E996FDFEC0DF043
:102A8600000E011802E1000E00180DE1010E000112
:102A96009C6F020EA36F900E0801946F000E956F47
:102AA60010EC0EF06AD00801830E946F050E956F38
:102AB6009D0E966F000E976F050E986F000E996F1C
:102AC600DFEC0DF0000E011802E1000E00183CE1EB
:102AD6000001A451000A0CE1010E8F6F020EA36FD4
:102AE600AF0E0801946F000E956F10EC0EF02BD010
:102AF60005018851740A0AE10001A451010A06E1A0
:102B0600B96B010EBA6F020EA36F1DD00501885175
:102B16006E0A0AE10001A451010A06E1BA6B010E30
:102B2600B96F020EA36F0FD0050188516C0A0BE135
:102B36000001A451010A07E1010E8F6FA56BA66B78
:102B4600A46B020EA36F19D0830E0801946F050EB5
:102B5600956FA80E966F000E976F060E986F000E73
:102B6600996FDFEC0DF0000E011802E1000E00185F
:102B760004E10001A36B010EA76F830E0801946F99
:102B8600050E956F9D0E966F000E976F050E986F4A
:102B9600000E996FDFEC0DF0005001100BE0250ED2
:102BA60008018A25E96E000E8B21EA6EEE50030AB3
:102BB60001E01ED00801830E946F050E956FA80ED6
:102BC600966F000E976F060E986F000E996FDFECEA
:102BD6000DF0005001100BE0250E08018A25E96E64
:102BE600000E8B21EA6EEE50030A01E001D002D0FE
:102BF60018EF1BF0020E0001A35D36E22C0E006EEC
:102C0600010E016EA3C004F0000E056E2BEC01F060
:102C160000C08CF801C08DF80001A351010F006EB1
:102C2600016A000E01222C0E046E010E056E2BECBD
:102C360001F0015008018D5D02E100508C5D12E249
:102C4600830E8C25926F050E8D21936FAAEC08F0EA
:102C560092C8E1FF93C8E2FF00C0E6FF08018C4B73
:102C66008D2BDAD70001A32BA351020AD8A418EFA3
:102C76001BF0A751010AD8A4E3D00801906B916B11
:102C8600946B956B830E966F050E976F540E986F27
:102C9600000E996F2AEC0EF000C090F801C091F872
:102CA6008E6B8F6B800E8F19006E800E005C02E1BA
:102CB6000F0E8E5D2FE2010E9025006E000E912103
:102CC600016E8E5100268F510122830E0024E96E7B
:102CD600050E0120EA6EEE50260A01E11BD0580EC1
:102CE6008E25E16E000E8F21E26E010E9025006E9C
:102CF600000E9121016E8E5100268F510122830E06
:102D06000024E96E050E0120EA6EEECFE6FF8E4B3B
:102D16008F2BC8D790C894F891C895F8830E966FF4
:102D2600050E976F500E986F000E996F2AEC0EF0F5
:102D360000C090F801C091F88E6B8F6B800E8F19D2
:102D4600006E800E005C02E1080E8E5D1BE2380EFE
:102D56008E25E16E000E8F21E26E010E9025006E2B
:102D6600000E9121016E8E5100268F510122830E95
:102D76000024E96E050E0120EA6EEECFE6FF8E4BCB
:102D86008F2BDCD70001A76B580E0801946F000E3D
:102D9600956F410E966F000E976F88EC0EF0000E41
:102DA600011802E1000E001812E1380E0801946FB6
:102DB600000E956F6B0E966F000E976F88EC0EF0F7
:102DC600000E011802E1000E001801E105D0000115
:102DD600A451010A01E006D00001010EA46F010E04
:102DE600BA6F2ED0A46B010E8F6F08018E6B8F6B9E
:102DF600800E8F19006E800E005C02E10F0E8E5D54
:102E06000AE2580E8E25E16E000E8F21E26EE66A0A
:102E16008E4B8F2BEDD78E6B8F6B800E8F19006EBE
:102E2600800E005C02E1080E8E5D0AE2380E8E25E9
:102E3600E16E000E8F21E26EE66A8E4B8F2BEDD788
:102E46000001BA51010AD8A4EFD0230E08018A2541
:102E5600E96E000E8B21EA6EEECF03F003C000F0A0
:102E6600000E016E003600900136F30E0024E96E66
:102E7600040E0120EA6EEECF01F0EECF02F0000163
:102E86006A51025C02E16951015C6BE2230E0801A2
:102E96008A25E96E000E8B21EA6EEECF03F003C0A1
:102EA60000F0000E016E003600900136F30E00248D
:102EB600046E040E0120056E04C0E9FF05C0EAFF9A
:102EC600EECF02F0EECF03F0010E0224006E000EEC
:102ED6000320016E04C0E1FF05C0E2FF00C0E6FF6B
:102EE60001C0E6FF280E0224F66E870E0320F76E59
:102EF600000EF86E000EF8220900F5CF94F88AC885
:102F060095F88BC896F8CEEC0DF00050000A28E133
:102F1600230E8A25E96E000E8B21EA6EEECF03F0B2
:102F260003C000F0000E016E003600900136F30E6D
:102F36000024026E040E0120036E02C0E9FF03C0E6
:102F4600EAFF010EEE5C006E000EEE58016E02C046
:102F5600E1FF03C0E2FF00C0E6FF01C0E6FF01D0CB
:102F660074D78AC894F88BC895F8AEEC0DF0005269
:102F76005BE0230E8A25E96E000E8B21EA6EEECF0A
:102F860003F003C000F0000E016E0036009001361B
:102F9600F30E0024E96E040E0120EA6EEECF01F076
:102FA600EECF02F000016A51025C02E16951015C58
:102FB6003BE38AC894F88BC895F878EC0DF0230E9D
:102FC6008A25D96E000E8B21DA6EDECF00F0000E58
:102FD600016E330E046E000E056E2BEC01F0C00E72
:102FE6000026040E0122250E0024E16E000E0120AB
:102FF600E26EE66A230E8A25E96E000E8B21EA6EE2
:10300600EECF03F003C000F0000E016E0036009014
:103016000136F30E0024E16E040E0120E26EE66A2C
:10302600E66A0001BA6BA36B0001B951010AD8A484
:10303600EFD0230E08018A25E96E000E8B21EA6E79
:10304600EECF03F003C000F0000E016E00360090D4
:103056000136F30E0024E96E040E0120EA6EEECF6F
:1030660001F0EECF02F000016851025C02E1675107
:10307600015C6BE2230E08018A25E96E000E8B21A6
:10308600EA6EEECF03F003C000F0000E016E0036CC
:1030960000900136F30E0024046E040E0120056E26
:1030A60004C0E9FF05C0EAFFEECF02F0EECF03F061
:1030B600010E0224006E000E0320016E04C0E1FF23
:1030C60005C0E2FF00C0E6FF01C0E6FFC70E02240E
:1030D600F66E930E0320F76E000EF86E000EF822C1
:1030E6000900F5CF94F88AC895F88BC896F8CEEC07
:1030F6000DF00050000A28E1230E8A25E96E000E25
:103106008B21EA6EEECF03F003C000F0000E016ED5
:10311600003600900136F30E0024026E040E0120E4
:10312600036E02C0E9FF03C0EAFF010EEE5C006E0B
:10313600000EEE58016E02C0E1FF03C0E2FF00C0C0
:10314600E6FF01C0E6FF01D074D78AC894F88BC8A1
:1031560095F8AEEC0DF000525BE0230E8A25E96E81
:10316600000E8B21EA6EEECF03F003C000F0000ED6
:10317600016E003600900136F30E0024E96E040E4F
:103186000120EA6EEECF01F0EECF02F000016851A9
:10319600025C02E16751015C3BE38AC894F88BC884
:1031A60095F878EC0DF0230E8A25D96E000E8B214A
:1031B600DA6EDECF00F0000E016E330E046E000EE6
:1031C600056E2BEC01F0C00E0026040E0122250E22
:1031D6000024E16E000E0120E26EE66A230E8A25C7
:1031E600E96E000E8B21EA6EEECF03F003C000F00D
:1031F600000E016E003600900136F30E0024E16EDB
:10320600040E0120E26EE66AE66A0001B96BA36B62
:1032160000018F51010AD8A4ECD0230E08018A259B
:10322600E96E000E8B21EA6EEECF03F003C000F0CC
:10323600000E016E003600900136F30E0024E96E92
:10324600040E0120EA6EEECF01F0EECF02F0375009
:10325600025C02E13650015C6AE2230E8A25E96EC1
:10326600000E8B21EA6EEECF03F003C000F0000ED5
:10327600016E003600900136F30E0024046E040E33
:103286000120056E04C0E9FF05C0EAFFEECF02F09B
:10329600EECF03F0010E0224006E000E0320016E35
:1032A60004C0E1FF05C0E2FF00C0E6FF01C0E6FF83
:1032B6006C0E0224F66E8E0E0320F76E000EF86E6C
:1032C600000EF8220900F5CF94F88AC895F88BC845
:1032D60096F8CEEC0DF00050000A28E1230E8A2560
:1032E600E96E000E8B21EA6EEECF03F003C000F00C
:1032F600000E016E003600900136F30E0024026EB9
:10330600040E0120036E02C0E9FF03C0EAFF010EAE
:10331600EE5C006E000EEE58016E02C0E1FF03C0C7
:10332600E2FF00C0E6FF01C0E6FF01D076D78AC8FB
:1033360094F88BC895F8AEEC0DF000525AE0230EC7
:103346008A25E96E000E8B21EA6EEECF03F003C0EC
:1033560000F0000E016E003600900136F30E0024D8
:10336600E96E040E0120EA6EEECF01F0EECF02F018
:103376003750025C02E13650015C3BE38AC894F8A0
:103386008BC895F878EC0DF0230E8A25D96E000EC1
:103396008B21DA6EDECF00F0000E016E330E046E66
:1033A600000E056E2BEC01F0C00E0026040E012265
:1033B600250E0024E16E000E0120E26EE66A230E61
:1033C6008A25E96E000E8B21EA6EEECF03F003C06C
:1033D60000F0000E016E003600900136F30E002458
:1033E600E16E040E0120E26EE66AE66A00018F6B6A
:1033F600A36B00019C51010AD8A417D1230E080122
:103406008A25E96E000E8B21EA6EEECF03F003C02B
:1034160000F0000E016E003600900136F30E002417
:10342600E96E040E0120EA6EEECF01F0EECF02F057
:10343600000E021802E1000E01180CE1F00E946F66
:10344600980E956F000E966F8AC897F88BC898F8F5
:10345600F0EC0CF0230E8A25E96E000E8B21EA6E45
:10346600EECF03F003C000F0000E016E00360090B0
:103476000136F30E0024E96E040E0120EA6EEECF4B
:1034860001F0EECF02F02550025C02E12450015C0F
:103496006AE2230E8A25E96E000E8B21EA6EEECFD4
:1034A60003F003C000F0000E016E003600900136F6
:1034B600F30E0024046E040E0120056E04C0E9FF1D
:1034C60005C0EAFFEECF02F0EECF03F0010E0224B4
:1034D600006E000E0320016E04C0E1FF05C0E2FF8E
:1034E60000C0E6FF01C0E6FF640E0224F66E630E1E
:1034F6000320F76E000EF86E000EF8220900F5CFD5
:1035060094F88AC895F88BC896F8CEEC0DF0005062
:10351600000A28E1230E8A25E96E000E8B21EA6E49
:10352600EECF03F003C000F0000E016E00360090EF
:103536000136F30E0024026E040E0120036E02C053
:10354600E9FF03C0EAFF010EEE5C006E000EEE58C6
:10355600016E02C0E1FF03C0E2FF00C0E6FF01C04A
:10356600E6FF01D077D78AC894F88BC895F8AEECF9
:103576000DF000525AE0230E8A25E96E000E8B21CB
:10358600EA6EEECF03F003C000F0000E016E0036C7
:1035960000900136F30E0024E96E040E0120EA6E57
:1035A600EECF01F0EECF02F02550025C02E124508E
:1035B600015C3BE38AC894F88BC895F878EC0DF06B
:1035C600230E8A25D96E000E8B21DA6EDECF00F02F
:1035D600000E016E330E046E000E056E2BEC01F02C
:1035E600C00E0026040E0122250E0024E16E000EF8
:1035F6000120E26EE66A230E8A25E96E000E8B2113
:10360600EA6EEECF03F003C000F0000E016E003646
:1036160000900136F30E0024E16E040E0120E26EE6
:0C362600E66AE66A00019C6BA36B1200D0
:103632008AC89DF88BC89EF87B0E08019F6F000E0A
:10364200A06F040EA16F000EA26F52EC09F0000EE3
:10365200011802E1000E001803E1020E006E19D0FB
:103662008AC89DF88BC89EF8690E08019F6F050EE7
:10367200A06F040EA16F000EA26F52EC09F0000EB3
:10368200011802E1000E001803E1010E006E01D0E4
:04369200006A1200B8
:10369600BBD03C0E0801946F050E956F966B040E19
:1036A600976F000E986FF2EC0FF0010E946F956B0A
:1036B600E8EC0EF077C040F578C041F579C042F5E8
:1036C6007AC043F5030E0001766FB1D0050E0501F1
:1036D6004025016E000E4121026E000E4221036E4E
:1036E600000E4321046E00017A51045C08E1795111
:1036F600035C05E17851025C02E17751015C02E26C
:10370600020E766F10EC10F00050020A04E1040E6F
:103716000001766F01D08BD0030E0801946F75C03F
:1037260095F8E8EC0EF077C040F578C041F579C021
:1037360042F57AC043F5050E0001766F78D010EC9D
:1037460010F000C08AF80050060A04E1040E0001D9
:10375600766F2FD008018A51050A2BE177C040F514
:1037660078C041F579C042F57AC043F5060E0001EE
:10377600766F3C0E0801AB6F050EAC6F6D0EAD6F2C
:10378600050EAE6F040EAF6F000EB06FE1EC02F0E7
:10379600710E946F050E956F4D0E966F050E976F11
:1037A600490E986F050E996FB5EC0FF00001756B19
:1037B6003ED03DD0010E05014025016E000E41218F
:1037C600026E000E4221036E000E4321046E045069
:1037D60000017A5D08E10350795D05E10250785DEC
:1037E60002E10150775D0FE3010E0501515F000E06
:1037F600525B535B545B77C040F578C041F579C0A6
:1038060042F57AC043F513D000017651020AD8B4C6
:1038160040D77651030AD8B459D77651040AD8B49A
:103826007BD77651050A8BE07651060AC3E0120073
:103836001F0E0801C26F010EC36FFEEC00F01F0ED3
:103846000801C26F020EC36FC2EC00F0140E08012D
:103856008A6F28C88BF89DEC11F0120E0801C26F12
:10386600010EC36FC2EC00F098EC12F0120EC26F9C
:10387600010EC36FFEEC00F0160E0801C26F70EC6D
:1038860000F02BC8E1FF2CC8E2FF00C0E6FF170ED0
:103896000801C26F70EC00F029C8E1FF2AC8E2FFF8
:0638A60000C0E6FF120065
:1038AC002BC8C2F82CC8C3F8DFEC00F000C036F807
:1038BC00AAEC08F000C035F8AAEC08F000C034F807
:1038CC00AAEC08F000C033F8000E0801341902E12C
:1038DC00000E331901E1D0D0AAEC08F000C038F882
:1038EC00AAEC08F000C037F83D0E08019D6F080ED9
:1038FC009E6FCD0E9F6F190EA06F040EA16F000E60
:10390C00A26FDFEC08F0390E9D6F080E9E6FC90E8A
:10391C009F6F190EA06F040EA16F000EA26FDFEC4B
:10392C0008F0020EC56F080E2B25C66F000E2C2159
:10393C00C76F48EC00F00E0E080128258A6F000EA8
:10394C0029218B6F2A518A27000E8B23080E8A2778
:10395C00000E8B23A4EC12F0000E0801361902E1C4
:10396C00350E351903E1BCEC11F086D0000E0801C0
:10397C00341902E1440E331902E187DE7DD02D0E9D
:10398C0008019D6F080E9E6FB50E9F6F190EA06FEC
:10399C00060EA16F000EA26FDFEC08F00E0E2825AC
:1039AC008A6F000E29218B6F2A518A27000E8B23D8
:1039BC00080E8A27000E8B23A4EC12F0570E080178
:1039CC00AB6F050EAC6F390EAD6F080EAE6F040EFB
:1039DC00AF6F000EB06FE1EC02F05B0EAB6F050E3B
:1039EC00AC6F2D0EAD6F080EAE6F060EAF6F000EE6
:1039FC00B06FE1EC02F035C861F536C862F533C83A
:103A0C0063F534C864F5080E375D006E000E385946
:103A1C00016E00C065F501C066F53D0E8A6F080E9B
:103A2C008B6F01DE00C067F5000E0501686F570E45
:103A3C0008018A6F050E8B6FBBEC12F000C037F8D3
:103A4C0001C038F80050011017E02D0E08019D6FD1
:103A5C00080E9E6F390E9F6F080EA06F33C8A1F829
:103A6C0034C8A2F835C8A3F836C8A4F837C8A5F8E6
:0A3A7C0038C8A6F8DFEC0BF01200CA
:103A86001F0E0801C26F010EC36FFEEC00F01F0E81
:103A96000801C26F020EC36FC2EC00F0140E0801DB
:103AA6008A6F28C88BF89DEC11F098EC12F0160E70
:103AB6008A6F2AC88BF89DEC11F098EC12F0170E5D
:103AC6008A6F29C88BF89DEC11F098EC12F0120061
:103AD6000801766B7F6B846B856B866B876B7B0EC1
:103AE6009D6F080E9E6F0E0E28259F6F000E2921D2
:103AF600A06F100E9F27000EA023040EA16F000ECC
:103B0600A26FDFEC08F0770E9D6F080E9E6F0E0E0B
:103B160028259F6F000E2921A06F0C0E9F27000EEF
:103B2600A023040EA16F000EA26FDFEC08F02CC8D4
:103B3600C2F82DC8C3F8DFEC00F000C03BF8AAECD1
:103B460008F000C03AF8AAEC08F000C03DF8AAEC6C
:103B560008F000C03CF80801806B816B800E81196B
:103B6600006E000E800A005C02E1010E805DD8B096
:103B7600C7D0330E006E000E016E80C804F081C8F7
:103B860005F02BEC01F0C00E0026040E0122220ED9
:103B96000024E96E000E0120EA6EEE50000A0FE1E5
:103BA600000E871902E1000E861908E180C882F826
:103BB60081C883F8010E866F000E876F9ED0330E84
:103BC600006E000E016E80C804F081C805F02BEC73
:103BD60001F0C00E0024D96E040E0120DA6EDECF8D
:103BE60001F077510118D8A488D0330E006E000E6C
:103BF600016E80C804F081C805F02BEC01F0C00E00
:103C06000026040E0122010E0024D96E000E0120AA
:103C1600DA6E7851DE1871E1330E006E000E016E19
:103C260080C804F081C805F02BEC01F0C00E002618
:103C3600040E0122020E0024D96E000E0120DA6E57
:103C46007951DE185AE1330E006E000E016E80C8FF
:103C560004F081C805F02BEC01F0C00E0026040E1E
:103C66000122030E0024D96E000E0120DA6E7A516D
:103C7600DE1843E1330E006E000E016E80C804F0BC
:103C860081C805F02BEC01F0C00E0026040E0122BF
:103C96000A0E0024D96E000E0120DA6EDECF01F086
:103CA600DECF02F03B51021802E101503A1925E13C
:103CB600330E006E000E016E80C804F081C805F058
:103CC6002BEC01F0C00E0026040E01220C0E00247F
:103CD600D96E000E0120DA6EDECF01F0DECF02F0E3
:103CE6003D51021802E101503C1907E180C87FF8F6
:103CF600010E846F000E856F03D0804B812B2ED76B
:103D0600000E851902E1000E8419D8A491D0000E88
:103D1600871902E1010E8619D8A48AD082C88AF8CA
:103D260070EC13F082C87FF8330E006E000E016E41
:103D360082C804F0000E056E2BEC01F0C00E0024C4
:103D4600E16E040E0120E26E77C8E6FF330E006EC8
:103D5600000E016E7FC804F0000E056E2BEC01F01C
:103D6600C00E0026040E0122010E0024E16E000E94
:103D76000120E26E78C8E6FF330E006E000E016E7B
:103D86007FC804F0000E056E2BEC01F0C00E002675
:103D9600040E0122020E0024E16E000E0120E26EE6
:103DA60079C8E6FF330E006E000E016E7FC804F080
:103DB600000E056E2BEC01F0C00E0026040E01224B
:103DC600030E0024E16E000E0120E26E7AC8E6FFC3
:103DD600330E006E000E016E7FC804F0000E056EF5
:103DE6002BEC01F0C00E0026040E01220C0E00245E
:103DF600E16E000E0120E26E3CC8E6FF3DC8E6FF1C
:103E0600330E006E000E016E7FC804F0000E056EC4
:103E16002BEC01F0C00E0026040E01220A0E00242F
:103E2600E16E000E0120E26E3AC8E6FF3BC8E6FFEF
:103E3600000E851902E1000E84190AE1000E8719A9
:103E460002E1000E861904E1060E006E3CEF28F032
:103E5600330E006E000E016E7FC804F0000E056E74
:103E66002BEC01F0C00E0026040E0122240E0024C5
:103E7600886F000E0120896F7B0E8A6F080E8B6F8C
:103E860019EC1BF088C8E1FF89C8E2FF00C0E6FF15
:103E9600330E006E000E016E7FC804F0000E056E34
:103EA6002BEC01F0C00E002408019D6F040E0120CA
:103EB6009E6F040E9D27000E9E23060E28259F6FDB
:103EC600000E2921A06F060EA16F000EA26FDFEC77
:103ED60008F0040E2C25C26F000E2D21C36FDFECF7
:103EE60000F000C041F8AAEC08F000C040F8AAECC7
:103EF60008F000C03FF8AAEC08F000C03EF8AAECB3
:103F060008F000C045F8AAEC08F000C044F8AAEC96
:103F160008F000C043F8AAEC08F000C042F80C0E06
:103F260008012C25C26F000E2D21C36FDFEC00F0B7
:103F360000C046F800C030F8000E0801316F30337B
:103F4600309F3033309F000E316FFC0E3017FF0E5E
:103F560031170D0E2C25C26F000E2D21C36FDFEC1D
:103F660000F03F0E001600C047F80E0E08012C2583
:103F7600C26F000E2D21C36FDFEC00F000C049F8C0
:103F8600AAEC08F000C048F8AAEC08F000C04BF80C
:103F9600AAEC08F000C04AF8AAEC08F000C04DF8F8
:103FA600AAEC08F000C04CF8330E006E000E016E4D
:103FB6007FC804F0000E056E2BEC01F0C00E002643
:103FC600040E01220E0E0024E16E000E0120E26EA8
:103FD6000E0E0501755D006E000E7659016E080124
:103FE6002A51005E2B51015A3051005E3151015A5F
:103FF60000C0E6FF01C0E6FF000E006E3151005C16
:1040060002E13051140820E2806B816B140E305DA2
:10401600016E000E3159026E0250815D02E10150BF
:10402600805D12E24E0E8025886F080E8121896F11
:10403600AAEC08F088C8E1FF89C8E2FF00C0E6FFE5
:104046000801804B812BE2D74751020AD8A45BD1E5
:10405600330E006E000E016E7FC804F0000E056E72
:104066002BEC01F0C00E0026040E0122250E0024C2
:10407600E96E000E0120EA6EEE50000A1FE1330ED3
:10408600006E000E016E7FC804F0000E056E2BEC6C
:1040960001F0C00E0026040E01220E0E0024E96E69
:1040A600000E0120EA6EEECF01F0EECF02F0000E18
:1040B600021802E1000E011801E103D0006A3CEF8C
:1040C60028F04E51020A1FE1330E006E000E016EFB
:1040D6007FC804F0000E056E2BEC01F0C00E002622
:1040E600040E0122100E0024E16E000E0120E26E85
:1040F60050C801F0006A51510026000E012200C08E
:10410600E6FF01C0E6FF330E006E000E016E7FC8AB
:1041160004F0000E056E2BEC01F0C00E0026040E16
:1041260001221A0E0024E16E000E0120E26E010E3D
:104136003E25006E000E3F21016E000E4021026EEC
:10414600000E4121036E00C0E6FF01C0E6FF02C07B
:10415600E6FF03C0E6FF330E006E000E016E7FC859
:1041660004F0000E056E2BEC01F0C00E0026040EC6
:104176000122160E0024E16E000E0120E26E340EBE
:10418600E66E120EE66E000EE66EE66E330E006EFC
:10419600000E016E7FC804F0000E056E2BEC01F0D8
:1041A600C00E0026040E0122280E0024E16E000E29
:1041B6000120E26EE66AE66A330E006E000E016EBC
:1041C6007FC804F0000E056E2BEC01F0C00E002631
:1041D600040E01222A0E0024E16E000E0120E26E7A
:1041E600E66AE66A330E006E000E016E7FC804F0C2
:1041F600000E056E2BEC01F0C00E0026040E012207
:104206002C0E0024E16E000E0120E26EE66AE66ADC
:10421600330E006E000E016E7FC804F0000E056EB0
:104226002BEC01F0C00E0026040E01222E0E0024F7
:10423600E16E000E0120E26EE66AE66A120EAB6FD0
:104246007FC8ACF890EC03F0330E006E000E016EE2
:104256007FC804F0000E056E2BEC01F0C00E0026A0
:10426600040E0122250E0024E16E000E0120E26EEE
:10427600010EE66E330E006E000E016E7FC804F06E
:10428600000E056E2BEC01F0C00E0026040E012276
:104296001E0E0024E16E000E0120E26E030EE66E95
:1042A600330E006E000E016E7FC804F0000E056E20
:1042B6002BEC01F0C00E0026040E0122160E00247F
:1042C600046E000E0120056E04C0E9FF05C0EAFF7A
:1042D600010EEE24006E000EEE20016E000EEE20A2
:1042E600026E000EEE20036E04C0E1FF05C0E2FF81
:1042F60000C0E6FF01C0E6FF02C0E6FF03C0E6FF1E
:10430600006A3CEF28F04751120AD8A42BD1330E8D
:10431600006E000E016E7FC804F0000E056E2BECD9
:1043260001F0C00E0026040E0122250E0024E96EBF
:10433600000E0120EA6EEE50040A1FE1330E006EF5
:10434600000E016E7FC804F0000E056E2BEC01F026
:10435600C00E0026040E01220E0E0024E96E000E89
:104366000120EA6EEECF01F0EECF02F0000E021849
:1043760002E1000E011801E103D0006A3CEF28F0CB
:104386004E51020A1FE1330E006E000E016E7FC809
:1043960004F0000E056E2BEC01F0C00E0026040E94
:1043A6000122100E0024E16E000E0120E26E50C8BC
:1043B60001F0006A51510026000E012200C0E6FFFE
:1043C60001C0E6FF330E006E000E016E7FC804F0DA
:1043D600000E056E2BEC01F0C00E0026040E012225
:1043E6001A0E0024E16E000E0120E26E010E3E253B
:1043F600006E000E3F21016E000E4021026E000E7F
:104406004121036E00C0E6FF01C0E6FF02C0E6FFE1
:1044160003C0E6FF330E006E000E016E7FC804F087
:10442600000E056E2BEC01F0C00E0026040E0122D4
:10443600160E0024E16E000E0120E26E42C8E6FF71
:1044460043C8E6FF44C8E6FF45C8E6FF330E006EE4
:10445600000E016E7FC804F0000E056E2BEC01F015
:10446600C00E0026040E0122280E0024E16E000E66
:104476000120E26EE66AE66A330E006E000E016EF9
:104486007FC804F0000E056E2BEC01F0C00E00266E
:10449600040E01222A0E0024E16E000E0120E26EB7
:1044A600E66AE66A330E006E000E016E7FC804F0FF
:1044B600000E056E2BEC01F0C00E0026040E012244
:1044C6002C0E0024E16E000E0120E26EE66AE66A1A
:1044D600330E006E000E016E7FC804F0000E056EEE
:1044E6002BEC01F0C00E0026040E01222E0E002435
:1044F600E16E000E0120E26EE66AE66A100EAB6F10
:104506007FC8ACF890EC03F0330E006E000E016E1F
:104516007FC804F0000E056E2BEC01F0C00E0026DD
:10452600040E0122250E0024E16E000E0120E26E2B
:10453600030EE66E330E006E000E016E7FC804F0A9
:10454600000E056E2BEC01F0C00E0026040E0122B3
:104556001E0E0024E16E000E0120E26EE66A006A7D
:104566003CEF28F0010E4715016E0150000AD8B441
:10457600A4D0330E006E000E016E7FC804F0000E4C
:10458600056E2BEC01F0C00E0026040E01221A0E59
:104596000024E16E000E0120E26E010E3E25006E43
:1045A600000E3F21016E000E4021026E000E4121D9
:1045B600036E00C0E6FF01C0E6FF02C0E6FF03C0CF
:1045C600E6FF330E006E000E016E7FC804F0000E8B
:1045D600056E2BEC01F0C00E0026040E01222E0EF5
:1045E6000024E16E000E0120E26EE66AE66A100E15
:1045F600AB6F7FC8ACF890EC03F0330E006E000E84
:10460600016E7FC804F0000E056E2BEC01F0C00EA3
:104616000026040E0122250E0024E96E000E01205C
:10462600EA6EEE50060A07E0110EAB6F7FC8ACF8D3
:1046360090EC03F015D0330E006E000E016E7FC8AD
:1046460004F0000E056E2BEC01F0C00E0026040EE1
:1046560001221E0E0024E16E000E0120E26EE66AC3
:10466600330E006E000E016E7FC804F0000E056E5C
:104676002BEC01F0C00E0026040E0122250E0024AC
:10468600E16E000E0120E26EE66A330E006E000E49
:10469600016E7FC804F0000E056E2BEC01F0C00E13
:1046A6000026040E0122220E0024E16E000E0120D7
:1046B600E26EE66A006A3CEF28F0040E4715016ECA
:1046C6000150000A2DE0330E006E000E016E7FC809
:1046D60004F0000E056E2BEC01F0C00E0026040E51
:1046E6000122250E0024E16E000E0120E26EE66A2C
:1046F600330E006E000E016E7FC804F0000E056ECC
:104706002BEC01F0C00E0026040E0122220E00241E
:10471600E16E000E0120E26EE66A006A3CEF28F0C8
:10472600330E006E000E016E7FC804F0000E056E9B
:104736002BEC01F0C00E0026040E0122250E0024EB
:10474600E96E000E0120EA6EEE50000A18E1330E03
:10475600006E000E016E7FC804F0000E056E2BEC95
:1047660001F0C00E0026040E0122220E0024E16E86
:10477600000E0120E26EE66A006A3CEF28F0010EA8
:10478600766F100E4715016E0150000AD8B4E6D3B5
:10479600330E006E000E016E7FC804F0000E056E2B
:1047A6002BEC01F0C00E0026040E0122250E00247B
:1047B600E96E000E0120EA6EEE50010A56E1330E54
:1047C600006E000E016E7FC804F0000E056E2BEC25
:1047D60001F0C00E0026040E01221A0E0024D96E26
:1047E600000E0120DA6EDECF01F0DECF02F0DECF62
:1047F60003F0DECF04F04151041808E140510318DC
:1048060005E13F51021802E13E5101182BE1330E3A
:10481600006E000E016E7FC804F0000E056E2BECD4
:1048260001F0C00E0026040E01221E0E0024E16EC9
:10483600000E0120E26EE66A330E006E000E016E77
:104846007FC804F0000E056E2BEC01F0C00E0026AA
:10485600040E0122250E0024E16E000E0120E26EF8
:10486600030EE66E006A3CEF28F0330E006E000E73
:10487600016E7FC804F0000E056E2BEC01F0C00E31
:104886000026040E01221A0E0024D96E000E012005
:10489600DA6EDECF01F0DECF02F0DECF03F0DECF40
:1048A60004F04151041808E14051031805E13F5155
:1048B600021802E13E51011802E0006ADAD3330E13
:1048C600006E000E016E7FC804F0000E056E2BEC24
:1048D60001F0C00E0026040E0122250E0024E96E0A
:1048E600000E0120EA6EEE50050A56E1330E006E08
:1048F600000E016E7FC804F0000E056E2BEC01F071
:10490600C00E0026040E01221A0E0024D96E000ED7
:104916000120DA6EDECF01F0DECF02F0DECF03F04B
:10492600DECF04F04151041808E14051031805E1B7
:104936003F51021802E13E5101182CE1330E006E80
:10494600000E016E7FC804F0000E056E2BEC01F020
:10495600C00E0026040E01221E0E0024E16E000E7B
:104966000120E26E030EE66E330E006E000E016E3F
:104976007FC804F0000E056E2BEC01F0C00E002679
:10498600040E0122250E0024E16E000E0120E26EC7
:10499600060EE66E006A6DD3330E006E000E016ED3
:1049A6007FC804F0000E056E2BEC01F0C00E002649
:1049B600040E0122250E0024E96E000E0120EA6E87
:1049C600EE50060A18E1330E006E000E016E80C826
:1049D60004F081C805F02BEC01F0C00E0026040E91
:1049E60001221E0E0024E16E000E0120E26E030E6F
:1049F600E66E006A3ED3330E006E000E016E7FC86F
:104A060004F0000E056E2BEC01F0C00E0026040E1D
:104A16000122250E0024E96E000E0120EA6EEE50FA
:104A2600030A19E0330E006E000E016E7FC804F013
:104A3600000E056E2BEC01F0C00E0026040E0122BE
:104A4600250E0024E96E000E0120EA6EEE50070ADC
:104A560002E0006A0ED3330E006E000E016E7FC8B0
:104A660004F0000E056E2BEC01F0C00E0026040EBD
:104A76000122280E0024E96E000E0120EA6EEECF18
:104A860003F0EECF04F02A0E0024D96E000E0120AA
:104A9600DA6EDECF01F0DECF02F00450021802E13A
:104AA60001500318D8B438D2330E006E000E016ED2
:104AB6007FC804F0000E056E2BEC01F0C00E002638
:104AC600040E01222A0E0024E96E000E0120EA6E71
:104AD600EECF03F0EECF04F0280E0024D96E000EC0
:104AE6000120DA6EDECF01F0DECF02F00250045C68
:104AF60002E10150035C25E2330E006E000E016EEA
:104B06007FC804F0000E056E2BEC01F0C00E0026E7
:104B1600040E01222A0E0024E96E000E0120EA6E20
:104B2600000EEE242E6F040EEE202F6F280E0024AA
:104B3600D96E000E0120DA6EDE502E5FDE502F5B3E
:104B460020D0330E006E000E016E7FC804F0000EFA
:104B5600056E2BEC01F0C00E0026040E01222A0E73
:104B66000024E96E000E0120EA6E280E0024D96E9C
:104B7600000E0120DA6EDE50EE5C2E6FDE50EE582F
:104B86002F6F42C832F843C833F844C834F845C8D2
:104B960035F8330E006E000E016E7FC804F0000E6D
:104BA600056E2BEC01F0C00E0026040E0122160E37
:104BB6000024D96E000E0120DA6EDECF01F0DECFC2
:104BC60002F0DECF03F0DECF04F04551045C08E1CD
:104BD6004451035C05E14351025C02E14251015C30
:104BE600D8B005D1330E006E000E016E7FC804F0FA
:104BF600000E056E2BEC01F0C00E0026040E0122FD
:104C0600160E0024E96E000E0120EA6E2E51EE24E7
:104C1600016E2F51EE20026E000EEE20036E000E86
:104C2600EE20046E3551045C08E13451035C05E165
:104C36003351025C02E13251015CD8A0D8D0330E68
:104C4600006E000E016E7FC804F0000E056E2BECA0
:104C560001F0C00E0026040E0122250E0024E96E86
:104C6600000E0120EA6EEE50070A16E1330E006EC2
:104C7600000E016E7FC804F0000E056E2BEC01F0ED
:104C8600C00E0026040E0122250E0024E16E000E41
:104C96000120E26E030EE66E330E006E000E016E0C
:104CA6007FC804F0000E056E2BEC01F0C00E002646
:104CB600040E01221F0E0024E16E000E0120E26E9A
:104CC600E66A330E006E000E016E7FC804F0000E19
:104CD600056E2BEC01F0C00E0026040E0122160E06
:104CE6000026000E012200C0D9FF01C0DAFF32C83B
:104CF60036F833C837F834C838F835C839F8DE50CE
:104D0600365FDE50375BDE50385BDE50395B00C005
:104D1600E1FF01C0E2FF32C8E6FF33C8E6FF34C850
:104D2600E6FF35C8E6FF330E006E000E016E7FC843
:104D360004F0000E056E2BEC01F0C00E0026040EEA
:104D46000122280E0024046E000E0120056E04C008
:104D5600E9FF05C0EAFF3651EE24026E3751EE2018
:104D6600036E000E006E040E016E010E005E000E54
:104D7600015A025000160350011604C0E1FF05C097
:104D8600E2FF00C0E6FF01C0E6FF330E006E000E34
:104D9600016E7FC804F0000E056E2BEC01F0C00E0C
:104DA6000026040E01222E0E0024E16E000E0120C4
:104DB600E26EE66AE66A330E006E000E016E7FC88A
:104DC60004F0000E056E2BEC01F0C00E0026040E5A
:104DD6000122300E0024E96E000E0120EA6EEE502C
:104DE600010A03E1010E766F01D0766B95D0330E82
:104DF600006E000E016E7FC804F0000E056E2BECEF
:104E060001F0C00E0026040E0122160E0024D96EF3
:104E1600000E0120DA6EDECF01F0DECF02F0DECF2B
:104E260003F0DECF04F03551041808E134510318BD
:104E360005E13351021802E13251011839E1330E0E
:104E4600006E000E016E7FC804F0000E056E2BEC9E
:104E560001F0C00E0026040E01222A0E0024E16E87
:104E6600000E0120E26E280E0024E96E000E0120DD
:104E7600EA6EEECFE6FFEECFE6FF330E006E000ED3
:104E8600016E7FC804F0000E056E2BEC01F0C00E1B
:104E96000026040E01222E0E0024E16E000E0120D3
:104EA600E26E2EC8E6FF2FC8E6FF010E766F34D0FD
:104EB600330E006E000E016E7FC804F0000E056E04
:104EC6002BEC01F0C00E0026040E0122160E002463
:104ED600E16E000E0120E26E32C8E6FF33C8E6FF3F
:104EE60034C8E6FF35C8E6FF330E006E000E016ECD
:104EF6007FC804F0000E056E2BEC01F0C00E0026F4
:104F0600040E01222E0E0024E16E000E0120E26E38
:104F1600E66AE66A010E766F330E006E000E016ECB
:104F26007FC804F0000E056E2BEC01F0C00E0026C3
:104F3600040E01220E0E0024E96E000E0120EA6E18
:104F4600EECF01F0EECF02F0000E006E0250005CD4
:104F560002E10150000802E2010E766F330E006E88
:104F6600000E016E7FC804F0000E056E2BEC01F0FA
:104F7600C00E0026040E0122300E0024E16E000E43
:104F86000120E26EE66A330E006E000E016E7FC8E7
:104F960004F0000E056E2BEC01F0C00E00248A6FA3
:104FA600040E01208B6F03EC15F0330E006E000E1D
:104FB600016E7FC804F0000E056E2BEC01F0C00EEA
:104FC6000026040E01220E0E0024E96E000E0120BA
:104FD600EA6EEECF01F0EECF02F0000E006E025048
:104FE600005C02E10150000839E2330E006E000E4B
:104FF600016E7FC804F0000E056E2BEC01F0C00EAA
:105006000026040E01221A0E0024046E000E012052
:10501600056E0E0E0024E96E000E0120EA6EEECF3C
:1050260000F0EECF01F0000E026E036E04C0E9FF41
:1050360005C0EAFFEE500026EE500122EE50022295
:10504600EE50032204C0E1FF05C0E2FF00C0E6FF08
:1050560001C0E6FF02C0E6FF03C0E6FF0801765383
:1050660007E09D6B020E9E6F7FC89FF8BAEC09F0B1
:04507600006A1200BA
:10507A00C40E0801C26F190EC36FDFEC00F000C046
:10508A0028F8E8D0D50E08018A6F190E8B6F3C0EEE
:10509A008C6F050E8D6F040E8E6F4FEC12F0005060
:1050AA00000A4BE1C40E0801C26F190EC36F020E4B
:1050BA00C46FA1EC00F07EEC11F0CB0EAB6F190EB1
:1050CA00AC6FCF0EAD6F190EAE6FD50EAF6F190E56
:1050DA00B06FB16B09EC03F0CB0EAB6F190EAC6F6E
:1050EA003C0EAD6F050EAE6F040EAF6F000EB06FC3
:1050FA00B0EC02F0C50EAB6F190EAC6FCB0EAD6FF4
:10510A00190EAE6FCF0EAF6F190EB06FB16B09ECFF
:10511A0003F0C50EAB6F190EAC6F360EAD6F050EF0
:10512A00AE6F060EAF6F000EB06FB0EC02F03C0E21
:10513A00BB6F000EBC6FA8EC01F095D00801AF0E52
:10514A008A6F190E8B6F360E8C6F050E8D6F060ED9
:10515A008E6F4FEC12F00050000A7BE1CB0E080173
:10516A008A6F190E8B6F34C58CF835C58DF8040E0D
:10517A008E6F4FEC12F00050000A6BE10F0E006EBA
:10518A00000E016E74C004F0000E056E2BEC01F0E7
:10519A00070E002408019D6F050E01209E6F090E5F
:1051AA009D27000E9E23C50E9F6F190EA06F060E37
:1051BA00A16F000EA26FDFEC08F00F0E006E000E5A
:1051CA00016E74C004F0000E056E2BEC01F0070EA0
:1051DA000024AB6F050E0120AC6F050EAB27000E45
:1051EA00AC2334C5ADF835C5AEF8040EAF6F000E6A
:1051FA00B06FE1EC02F00F0E006E000E016E74C08B
:10520A0004F0000E056E2BEC01F0070E0024E16E8F
:10521A00050E0120E26E010EE66E0F0E006E000E04
:10522A00016E74C004F0000E056E2BEC01F0070E3F
:10523A000026050E0122010E0024E16E000E012057
:10524A00E26E77C0E6FF78C0E6FF79C0E6FF7AC073
:10525A00E6FF09D008012851010AD8B413D728510A
:08526A00020AD8B46BD7120050
:10527200C90E0801AB6F190EAC6FCD0EAD6F190ED2
:10528200AE6FCD0EAF6F190EB06FB16B09EC03F0BC
:10529200C90EAB6F190EAC6F3C0EAD6F050EAE6F43
:0E52A200040EAF6F000EB06FB0EC02F0120001
:1052B00008018A6B1C5303E00D0E1D6F02D0050E12
:1052C0001D6F1DC88BF89DEC11F0020E08018A6F4E
:1052D0001C5303E0310E1E6F02D0300E1E6F1EC82D
:1052E0008BF89DEC11F00A0E0801C56FEE0EC66F2B
:1052F000050EC76F48EC00F0040E08018A6F1C53BE
:1053000003E0150E1F6F02D0120E1F6F1FC88BF81F
:105310009DEC11F0060E08018A6F120E8B6F9DEC4A
:1053200011F008011C5306E1070E8A6F0C0E8B6FFB
:105330009DEC11F008011C5306E1090E8A6F3F0E27
:105340008B6F9DEC11F01F0E0801C26F010EC36F31
:10535000C2EC00F01F0E0801C26F020EC36FC2EC58
:1053600000F0040E08018A6F36C58BF89DEC11F031
:10537000050E08018A6F37C58BF89DEC11F0020EFF
:1053800008018A6F38C58BF89DEC11F0030E0801F7
:105390008A6F39C58BF89DEC11F008018A6B3AC50C
:1053A0008BF89DEC11F0010E08018A6F3BC58BF85C
:1053B0009DEC11F0150E08018A6F8B6B9DEC11F0BE
:1053C000120E0801C26F70EC00F000C048F5080131
:1053D000286B210E296F080E2A6F220E2B6F080EE4
:1053E0002C6F1BEC1CF00801286BFE0E2115296F99
:1053F0001C5303E0010E206F01D0206B20512913B4
:1054000022C82AF843EC1DF0100E286F010E296FF8
:105410002A6B43EC1DF01F0EC26F040EC36FC2EC6B
:1054200000F098EC12F0070E946F050E956F966BD6
:10543000976B986BF2EC0FF01F0EC26F010EC36FEB
:10544000FEEC00F01F0E0801C26F020EC36FFEECEF
:0454500000F0120056
:1054540008011E6B010E1E5DD8B030D3330E006EF2
:10546400000E016E1EC804F0000E056E2BEC01F058
:10547400C00E0026040E0122220E0024E96E000E46
:105484000120EA6EEE50000A01E116D3330E006EDD
:10549400000E016E1EC804F0000E056E2BEC01F028
:1054A400C00E0026040E01221E0E0024E96E000E1A
:1054B4000120EA6EEE50000A01E1D9D0330E006EED
:1054C400000E016E1EC804F0000E056E2BEC01F0F8
:1054D400C00E0026040E01221E0E0024026E000ED1
:1054E4000120036E02C0E9FF03C0EAFFEE04006E70
:1054F40002C0E1FF03C0E2FF00C0E6FF330E006E0E
:10550400000E016E1EC804F0000E056E2BEC01F0B7
:10551400C00E0026040E01221E0E0024E96E000EA9
:105524000120EA6EEE50000AD8A4A1D0330E006E1A
:10553400000E016E1EC804F0000E056E2BEC01F087
:10554400C00E0026040E0122250E0024E96E000E72
:105554000120EA6EEE50010A2FE0330E006E000EB9
:10556400016E1EC804F0000E056E2BEC01F0C00E97
:105574000026040E0122250E0024E96E000E0120EF
:10558400EA6EEE50040A18E0330E006E000E016E4F
:105594001EC804F0000E056E2BEC01F0C00E0026B0
:1055A400040E0122250E0024E96E000E0120EA6E8D
:1055B400EE50060A01E05BD0330E006E000E016E61
:1055C4001EC804F0000E056E2BEC01F0C00E002680
:1055D400040E0122250E0024E16E000E0120E26E6D
:1055E400E66A330E006E000E016E1EC804F0000E53
:1055F400056E2BEC01F0C00E0026040E0122220ED3
:105604000024E16E000E0120E26EE66A330E006EA5
:10561400000E016E1EC804F0000E056E2BEC01F0A6
:10562400C00E0026040E01222E0E0024E16E000E90
:105634000120E26EE66AE66A040EAB6F330E006E7A
:10564400000E016E1EC804F0000E056E2BEC01F076
:10565400C00E0026040E0122230E0024E96E000E63
:105664000120EA6EEECFACF890EC03F025D2330EB5
:10567400006E000E016E1EC804F0000E056E2BECC9
:1056840001F0C00E0026040E0122250E0024E96E4E
:10569400000E0120EA6EEE50000A01E10DD2330E35
:1056A400006E000E016E1EC804F0000E056E2BEC99
:1056B40001F0C00E0026040E01221F0E0024E96E24
:1056C400000E0120EA6EEE50000A01E1F5D1330E1E
:1056D400006E000E016E1EC804F0000E056E2BEC69
:1056E40001F0C00E0026040E01221F0E0024026EDB
:1056F400000E0120036E02C0E9FF03C0EAFFEE04BE
:10570400006E02C0E1FF03C0E2FF00C0E6FF330EFB
:10571400006E000E016E1EC804F0000E056E2BEC28
:1057240001F0C00E0026040E01221F0E0024E96EB3
:10573400000E0120EA6EEE50000AD8A4BDD1330E4B
:10574400006E000E016E1EC804F0000E056E2BECF8
:1057540001F0C00E0026040E01222A0E0024E96E78
:10576400000E0120EA6EEECF03F0EECF04F0280E17
:105774000024D96E000E0120DA6EDECF01F0DECFF8
:1057840002F00450021802E101500318D8B494D175
:10579400330E006E000E016E1EC804F0000E056E7E
:1057A4002BEC01F0C00E0026040E0122260E00246C
:1057B400E16E000E0120E26E280E0024E96E000E58
:1057C4000120EA6EEECFE6FFEECFE6FF330E006E69
:1057D400000E016E1EC804F0000E056E2BEC01F0E5
:1057E400C00E0026040E01222C0E0024E96E000EC9
:1057F4000120EA6EEECF03F0EECF04F0280E002471
:10580400D96E000E0120DA6EDECF01F0DECF02F099
:105814000250045C02E10150035C25E2330E006E89
:10582400000E016E1EC804F0000E056E2BEC01F094
:10583400C00E0026040E01222A0E0024E96E000E7A
:105844000120EA6E000EEE241C6F040EEE201D6F84
:10585400280E0024D96E000E0120DA6EDE501C5F83
:10586400DE501D5B20D0330E006E000E016E1EC88C
:1058740004F0000E056E2BEC01F0C00E0026040EA1
:1058840001222A0E0024E96E000E0120EA6E280E81
:105894000024D96E000E0120DA6EDE50EE5C1C6F1F
:1058A400DE50EE581D6F330E006E000E016E1EC8E2
:1058B40004F0000E056E2BEC01F0C00E0026040E61
:1058C4000122100E0024D96E000E0120DA6EDECF04
:1058D40001F0DECF02F01D51025C02E11C51015CBB
:1058E40018E2330E006E000E016E1EC804F0000EA6
:1058F400056E2BEC01F0C00E0026040E0122100EE2
:105904000024E96E000E0120EA6EEECF1CF8EECF03
:105914001DF8330E006E000E016E1EC804F0000E5A
:10592400056E2BEC01F0C00E0026040E01222E0E93
:105934000024E16E000E0120E26E1CC8E6FF1DC8C3
:10594400E6FF330E006E000E016E1EC804F0000E5A
:10595400056E2BEC01F0C00E0026040E0122250E6C
:105964000024E96E000E0120EA6EEE50070A46E1BB
:10597400330E006E000E016E1EC804F0000E056E9C
:105984002BEC01F0C00E0026040E0122250E00248B
:10599400E16E000E0120E26EE66A330E006E000E28
:1059A400016E1EC804F0000E056E2BEC01F0C00E53
:1059B4000026040E0122220E0024E16E000E0120B6
:1059C400E26EE66A330E006E000E016E1EC804F02D
:1059D400000E056E2BEC01F0C00E0026040E012211
:1059E4002E0E0024E16E000E0120E26EE66AE66AE5
:1059F400040EAB6F1EC8ACF890EC03F0330E006ECF
:105A0400000E016E1EC804F0000E056E2BEC01F0B2
:105A1400C00E0026040E0122250E0024E96E000E9D
:105A24000120EA6EEE50030A46E1330E006E000ECA
:105A3400016E1EC804F0000E056E2BEC01F0C00EC2
:105A44000026040E0122250E0024E16E000E012022
:105A5400E26E070EE66E330E006E000E016E1EC877
